{
	"data": {
		"bytecode": {
			"linkReferences": {},
			"object": "608060405234801561000f575f80fd5b50610f5d8061001d5f395ff3fe60806040526004361061003e575f3560e01c8063163de5e5146100425780633a3b0b1e1461006c5780638c176dcc146100ab578063a8496426146100db575b5f80fd5b34801561004d575f80fd5b50610056610105565b6040516100639190610658565b60405180910390f35b348015610077575f80fd5b50610092600480360381019061008d91906106df565b610121565b6040516100a294939291906107f5565b60405180910390f35b6100c560048036038101906100c091906109ad565b610292565b6040516100d29190610658565b60405180910390f35b3480156100e6575f80fd5b506100ef6105b6565b6040516100fc9190610658565b60405180910390f35b5f8054906101000a90046cffffffffffffffffffffffffff1681565b6001602052815f5260405f20818154811061013a575f80fd5b905f5260205f2090600402015f9150915050805f01805461015a90610a62565b80601f016020809104026020016040519081016040528092919081815260200182805461018690610a62565b80156101d15780601f106101a8576101008083540402835291602001916101d1565b820191905f5260205f20905b8154815290600101906020018083116101b457829003601f168201915b5050505050908060010180546101e690610a62565b80601f016020809104026020016040519081016040528092919081815260200182805461021290610a62565b801561025d5780601f106102345761010080835404028352916020019161025d565b820191905f5260205f20905b81548152906001019060200180831161024057829003601f168201915b505050505090806002015f9054906101000a900473ffffffffffffffffffffffffffffffffffffffff16908060030154905084565b5f8034116102d5576040517f08c379a00000000000000000000000000000000000000000000000000000000081526004016102cc90610adc565b60405180910390fd5b5f73ffffffffffffffffffffffffffffffffffffffff168273ffffffffffffffffffffffffffffffffffffffff1603610343576040517f08c379a000000000000000000000000000000000000000000000000000000000815260040161033a90610b44565b60405180910390fd5b5f60405180608001604052808681526020018581526020018473ffffffffffffffffffffffffffffffffffffffff1681526020013481525090506103856105d6565b60015f805f9054906101000a90046cffffffffffffffffffffffffff166cffffffffffffffffffffffffff166cffffffffffffffffffffffffff1681526020019081526020015f2081908060018154018082558091505060019003905f5260205f2090600402015f909190919091505f820151815f0190816104079190610cff565b50602082015181600101908161041d9190610cff565b506040820151816002015f6101000a81548173ffffffffffffffffffffffffffffffffffffffff021916908373ffffffffffffffffffffffffffffffffffffffff1602179055506060820151816003015550508273ffffffffffffffffffffffffffffffffffffffff165f8054906101000a90046cffffffffffffffffffffffffff166cffffffffffffffffffffffffff167f09a31cf28551b9b81adccdfe6f7655f31af1a7733dbb51ebafc1162b7d2cf52a8787346040516104e293929190610dce565b60405180910390a35f8373ffffffffffffffffffffffffffffffffffffffff163460405161050f90610e3e565b5f6040518083038185875af1925050503d805f8114610549576040519150601f19603f3d011682016040523d82523d5f602084013e61054e565b606091505b5050905080610592576040517f08c379a000000000000000000000000000000000000000000000000000000000815260040161058990610e9c565b60405180910390fd5b5f8054906101000a90046cffffffffffffffffffffffffff16925050509392505050565b5f805f9054906101000a90046cffffffffffffffffffffffffff16905090565b60015f808282829054906101000a90046cffffffffffffffffffffffffff166105ff9190610ee7565b92506101000a8154816cffffffffffffffffffffffffff02191690836cffffffffffffffffffffffffff160217905550565b5f6cffffffffffffffffffffffffff82169050919050565b61065281610631565b82525050565b5f60208201905061066b5f830184610649565b92915050565b5f604051905090565b5f80fd5b5f80fd5b61068b81610631565b8114610695575f80fd5b50565b5f813590506106a681610682565b92915050565b5f819050919050565b6106be816106ac565b81146106c8575f80fd5b50565b5f813590506106d9816106b5565b92915050565b5f80604083850312156106f5576106f461067a565b5b5f61070285828601610698565b9250506020610713858286016106cb565b9150509250929050565b5f81519050919050565b5f82825260208201905092915050565b5f5b83811015610754578082015181840152602081019050610739565b5f8484015250505050565b5f601f19601f8301169050919050565b5f6107798261071d565b6107838185610727565b9350610793818560208601610737565b61079c8161075f565b840191505092915050565b5f73ffffffffffffffffffffffffffffffffffffffff82169050919050565b5f6107d0826107a7565b9050919050565b6107e0816107c6565b82525050565b6107ef816106ac565b82525050565b5f6080820190508181035f83015261080d818761076f565b90508181036020830152610821818661076f565b905061083060408301856107d7565b61083d60608301846107e6565b95945050505050565b5f80fd5b5f80fd5b7f4e487b71000000000000000000000000000000000000000000000000000000005f52604160045260245ffd5b6108848261075f565b810181811067ffffffffffffffff821117156108a3576108a261084e565b5b80604052505050565b5f6108b5610671565b90506108c1828261087b565b919050565b5f67ffffffffffffffff8211156108e0576108df61084e565b5b6108e98261075f565b9050602081019050919050565b828183375f83830152505050565b5f610916610911846108c6565b6108ac565b9050828152602081018484840111156109325761093161084a565b5b61093d8482856108f6565b509392505050565b5f82601f83011261095957610958610846565b5b8135610969848260208601610904565b91505092915050565b5f61097c826107a7565b9050919050565b61098c81610972565b8114610996575f80fd5b50565b5f813590506109a781610983565b92915050565b5f805f606084860312156109c4576109c361067a565b5b5f84013567ffffffffffffffff8111156109e1576109e061067e565b5b6109ed86828701610945565b935050602084013567ffffffffffffffff811115610a0e57610a0d61067e565b5b610a1a86828701610945565b9250506040610a2b86828701610999565b9150509250925092565b7f4e487b71000000000000000000000000000000000000000000000000000000005f52602260045260245ffd5b5f6002820490506001821680610a7957607f821691505b602082108103610a8c57610a8b610a35565b5b50919050565b7f416d6f756e74206861727573206c6562696820646172692030000000000000005f82015250565b5f610ac6601983610727565b9150610ad182610a92565b602082019050919050565b5f6020820190508181035f830152610af381610aba565b9050919050565b7f416c616d617420646f6e6174757220746964616b2076616c69640000000000005f82015250565b5f610b2e601a83610727565b9150610b3982610afa565b602082019050919050565b5f6020820190508181035f830152610b5b81610b22565b9050919050565b5f819050815f5260205f209050919050565b5f6020601f8301049050919050565b5f82821b905092915050565b5f60088302610bbe7fffffffffffffffffffffffffffffffffffffffffffffffffffffffffffffffff82610b83565b610bc88683610b83565b95508019841693508086168417925050509392505050565b5f819050919050565b5f610c03610bfe610bf9846106ac565b610be0565b6106ac565b9050919050565b5f819050919050565b610c1c83610be9565b610c30610c2882610c0a565b848454610b8f565b825550505050565b5f90565b610c44610c38565b610c4f818484610c13565b505050565b5b81811015610c7257610c675f82610c3c565b600181019050610c55565b5050565b601f821115610cb757610c8881610b62565b610c9184610b74565b81016020851015610ca0578190505b610cb4610cac85610b74565b830182610c54565b50505b505050565b5f82821c905092915050565b5f610cd75f1984600802610cbc565b1980831691505092915050565b5f610cef8383610cc8565b9150826002028217905092915050565b610d088261071d565b67ffffffffffffffff811115610d2157610d2061084e565b5b610d2b8254610a62565b610d36828285610c76565b5f60209050601f831160018114610d67575f8415610d55578287015190505b610d5f8582610ce4565b865550610dc6565b601f198416610d7586610b62565b5f5b82811015610d9c57848901518255600182019150602085019450602081019050610d77565b86831015610db95784890151610db5601f891682610cc8565b8355505b6001600288020188555050505b505050505050565b5f6060820190508181035f830152610de6818661076f565b90508181036020830152610dfa818561076f565b9050610e0960408301846107e6565b949350505050565b5f81905092915050565b50565b5f610e295f83610e11565b9150610e3482610e1b565b5f82019050919050565b5f610e4882610e1e565b9150819050919050565b7f5472616e7366657220676167616c0000000000000000000000000000000000005f82015250565b5f610e86600e83610727565b9150610e9182610e52565b602082019050919050565b5f6020820190508181035f830152610eb381610e7a565b9050919050565b7f4e487b71000000000000000000000000000000000000000000000000000000005f52601160045260245ffd5b5f610ef182610631565b9150610efc83610631565b925082820190506cffffffffffffffffffffffffff811115610f2157610f20610eba565b5b9291505056fea26469706673582212202e2f1988f56df085cc999d7f7a8ec18102ba2e1909f9676c93f8427aaa075bae64736f6c63430008180033",
			"opcodes": "PUSH1 0x80 PUSH1 0x40 MSTORE CALLVALUE DUP1 ISZERO PUSH2 0xF JUMPI PUSH0 DUP1 REVERT JUMPDEST POP PUSH2 0xF5D DUP1 PUSH2 0x1D PUSH0 CODECOPY PUSH0 RETURN INVALID PUSH1 0x80 PUSH1 0x40 MSTORE PUSH1 0x4 CALLDATASIZE LT PUSH2 0x3E JUMPI PUSH0 CALLDATALOAD PUSH1 0xE0 SHR DUP1 PUSH4 0x163DE5E5 EQ PUSH2 0x42 JUMPI DUP1 PUSH4 0x3A3B0B1E EQ PUSH2 0x6C JUMPI DUP1 PUSH4 0x8C176DCC EQ PUSH2 0xAB JUMPI DUP1 PUSH4 0xA8496426 EQ PUSH2 0xDB JUMPI JUMPDEST PUSH0 DUP1 REVERT JUMPDEST CALLVALUE DUP1 ISZERO PUSH2 0x4D JUMPI PUSH0 DUP1 REVERT JUMPDEST POP PUSH2 0x56 PUSH2 0x105 JUMP JUMPDEST PUSH1 0x40 MLOAD PUSH2 0x63 SWAP2 SWAP1 PUSH2 0x658 JUMP JUMPDEST PUSH1 0x40 MLOAD DUP1 SWAP2 SUB SWAP1 RETURN JUMPDEST CALLVALUE DUP1 ISZERO PUSH2 0x77 JUMPI PUSH0 DUP1 REVERT JUMPDEST POP PUSH2 0x92 PUSH1 0x4 DUP1 CALLDATASIZE SUB DUP2 ADD SWAP1 PUSH2 0x8D SWAP2 SWAP1 PUSH2 0x6DF JUMP JUMPDEST PUSH2 0x121 JUMP JUMPDEST PUSH1 0x40 MLOAD PUSH2 0xA2 SWAP5 SWAP4 SWAP3 SWAP2 SWAP1 PUSH2 0x7F5 JUMP JUMPDEST PUSH1 0x40 MLOAD DUP1 SWAP2 SUB SWAP1 RETURN JUMPDEST PUSH2 0xC5 PUSH1 0x4 DUP1 CALLDATASIZE SUB DUP2 ADD SWAP1 PUSH2 0xC0 SWAP2 SWAP1 PUSH2 0x9AD JUMP JUMPDEST PUSH2 0x292 JUMP JUMPDEST PUSH1 0x40 MLOAD PUSH2 0xD2 SWAP2 SWAP1 PUSH2 0x658 JUMP JUMPDEST PUSH1 0x40 MLOAD DUP1 SWAP2 SUB SWAP1 RETURN JUMPDEST CALLVALUE DUP1 ISZERO PUSH2 0xE6 JUMPI PUSH0 DUP1 REVERT JUMPDEST POP PUSH2 0xEF PUSH2 0x5B6 JUMP JUMPDEST PUSH1 0x40 MLOAD PUSH2 0xFC SWAP2 SWAP1 PUSH2 0x658 JUMP JUMPDEST PUSH1 0x40 MLOAD DUP1 SWAP2 SUB SWAP1 RETURN JUMPDEST PUSH0 DUP1 SLOAD SWAP1 PUSH2 0x100 EXP SWAP1 DIV PUSH13 0xFFFFFFFFFFFFFFFFFFFFFFFFFF AND DUP2 JUMP JUMPDEST PUSH1 0x1 PUSH1 0x20 MSTORE DUP2 PUSH0 MSTORE PUSH1 0x40 PUSH0 KECCAK256 DUP2 DUP2 SLOAD DUP2 LT PUSH2 0x13A JUMPI PUSH0 DUP1 REVERT JUMPDEST SWAP1 PUSH0 MSTORE PUSH1 0x20 PUSH0 KECCAK256 SWAP1 PUSH1 0x4 MUL ADD PUSH0 SWAP2 POP SWAP2 POP POP DUP1 PUSH0 ADD DUP1 SLOAD PUSH2 0x15A SWAP1 PUSH2 0xA62 JUMP JUMPDEST DUP1 PUSH1 0x1F ADD PUSH1 0x20 DUP1 SWAP2 DIV MUL PUSH1 0x20 ADD PUSH1 0x40 MLOAD SWAP1 DUP2 ADD PUSH1 0x40 MSTORE DUP1 SWAP3 SWAP2 SWAP1 DUP2 DUP2 MSTORE PUSH1 0x20 ADD DUP3 DUP1 SLOAD PUSH2 0x186 SWAP1 PUSH2 0xA62 JUMP JUMPDEST DUP1 ISZERO PUSH2 0x1D1 JUMPI DUP1 PUSH1 0x1F LT PUSH2 0x1A8 JUMPI PUSH2 0x100 DUP1 DUP4 SLOAD DIV MUL DUP4 MSTORE SWAP2 PUSH1 0x20 ADD SWAP2 PUSH2 0x1D1 JUMP JUMPDEST DUP3 ADD SWAP2 SWAP1 PUSH0 MSTORE PUSH1 0x20 PUSH0 KECCAK256 SWAP1 JUMPDEST DUP2 SLOAD DUP2 MSTORE SWAP1 PUSH1 0x1 ADD SWAP1 PUSH1 0x20 ADD DUP1 DUP4 GT PUSH2 0x1B4 JUMPI DUP3 SWAP1 SUB PUSH1 0x1F AND DUP3 ADD SWAP2 JUMPDEST POP POP POP POP POP SWAP1 DUP1 PUSH1 0x1 ADD DUP1 SLOAD PUSH2 0x1E6 SWAP1 PUSH2 0xA62 JUMP JUMPDEST DUP1 PUSH1 0x1F ADD PUSH1 0x20 DUP1 SWAP2 DIV MUL PUSH1 0x20 ADD PUSH1 0x40 MLOAD SWAP1 DUP2 ADD PUSH1 0x40 MSTORE DUP1 SWAP3 SWAP2 SWAP1 DUP2 DUP2 MSTORE PUSH1 0x20 ADD DUP3 DUP1 SLOAD PUSH2 0x212 SWAP1 PUSH2 0xA62 JUMP JUMPDEST DUP1 ISZERO PUSH2 0x25D JUMPI DUP1 PUSH1 0x1F LT PUSH2 0x234 JUMPI PUSH2 0x100 DUP1 DUP4 SLOAD DIV MUL DUP4 MSTORE SWAP2 PUSH1 0x20 ADD SWAP2 PUSH2 0x25D JUMP JUMPDEST DUP3 ADD SWAP2 SWAP1 PUSH0 MSTORE PUSH1 0x20 PUSH0 KECCAK256 SWAP1 JUMPDEST DUP2 SLOAD DUP2 MSTORE SWAP1 PUSH1 0x1 ADD SWAP1 PUSH1 0x20 ADD DUP1 DUP4 GT PUSH2 0x240 JUMPI DUP3 SWAP1 SUB PUSH1 0x1F AND DUP3 ADD SWAP2 JUMPDEST POP POP POP POP POP SWAP1 DUP1 PUSH1 0x2 ADD PUSH0 SWAP1 SLOAD SWAP1 PUSH2 0x100 EXP SWAP1 DIV PUSH20 0xFFFFFFFFFFFFFFFFFFFFFFFFFFFFFFFFFFFFFFFF AND SWAP1 DUP1 PUSH1 0x3 ADD SLOAD SWAP1 POP DUP5 JUMP JUMPDEST PUSH0 DUP1 CALLVALUE GT PUSH2 0x2D5 JUMPI PUSH1 0x40 MLOAD PUSH32 0x8C379A000000000000000000000000000000000000000000000000000000000 DUP2 MSTORE PUSH1 0x4 ADD PUSH2 0x2CC SWAP1 PUSH2 0xADC JUMP JUMPDEST PUSH1 0x40 MLOAD DUP1 SWAP2 SUB SWAP1 REVERT JUMPDEST PUSH0 PUSH20 0xFFFFFFFFFFFFFFFFFFFFFFFFFFFFFFFFFFFFFFFF AND DUP3 PUSH20 0xFFFFFFFFFFFFFFFFFFFFFFFFFFFFFFFFFFFFFFFF AND SUB PUSH2 0x343 JUMPI PUSH1 0x40 MLOAD PUSH32 0x8C379A000000000000000000000000000000000000000000000000000000000 DUP2 MSTORE PUSH1 0x4 ADD PUSH2 0x33A SWAP1 PUSH2 0xB44 JUMP JUMPDEST PUSH1 0x40 MLOAD DUP1 SWAP2 SUB SWAP1 REVERT JUMPDEST PUSH0 PUSH1 0x40 MLOAD DUP1 PUSH1 0x80 ADD PUSH1 0x40 MSTORE DUP1 DUP7 DUP2 MSTORE PUSH1 0x20 ADD DUP6 DUP2 MSTORE PUSH1 0x20 ADD DUP5 PUSH20 0xFFFFFFFFFFFFFFFFFFFFFFFFFFFFFFFFFFFFFFFF AND DUP2 MSTORE PUSH1 0x20 ADD CALLVALUE DUP2 MSTORE POP SWAP1 POP PUSH2 0x385 PUSH2 0x5D6 JUMP JUMPDEST PUSH1 0x1 PUSH0 DUP1 PUSH0 SWAP1 SLOAD SWAP1 PUSH2 0x100 EXP SWAP1 DIV PUSH13 0xFFFFFFFFFFFFFFFFFFFFFFFFFF AND PUSH13 0xFFFFFFFFFFFFFFFFFFFFFFFFFF AND PUSH13 0xFFFFFFFFFFFFFFFFFFFFFFFFFF AND DUP2 MSTORE PUSH1 0x20 ADD SWAP1 DUP2 MSTORE PUSH1 0x20 ADD PUSH0 KECCAK256 DUP2 SWAP1 DUP1 PUSH1 0x1 DUP2 SLOAD ADD DUP1 DUP3 SSTORE DUP1 SWAP2 POP POP PUSH1 0x1 SWAP1 SUB SWAP1 PUSH0 MSTORE PUSH1 0x20 PUSH0 KECCAK256 SWAP1 PUSH1 0x4 MUL ADD PUSH0 SWAP1 SWAP2 SWAP1 SWAP2 SWAP1 SWAP2 POP PUSH0 DUP3 ADD MLOAD DUP2 PUSH0 ADD SWAP1 DUP2 PUSH2 0x407 SWAP2 SWAP1 PUSH2 0xCFF JUMP JUMPDEST POP PUSH1 0x20 DUP3 ADD MLOAD DUP2 PUSH1 0x1 ADD SWAP1 DUP2 PUSH2 0x41D SWAP2 SWAP1 PUSH2 0xCFF JUMP JUMPDEST POP PUSH1 0x40 DUP3 ADD MLOAD DUP2 PUSH1 0x2 ADD PUSH0 PUSH2 0x100 EXP DUP2 SLOAD DUP2 PUSH20 0xFFFFFFFFFFFFFFFFFFFFFFFFFFFFFFFFFFFFFFFF MUL NOT AND SWAP1 DUP4 PUSH20 0xFFFFFFFFFFFFFFFFFFFFFFFFFFFFFFFFFFFFFFFF AND MUL OR SWAP1 SSTORE POP PUSH1 0x60 DUP3 ADD MLOAD DUP2 PUSH1 0x3 ADD SSTORE POP POP DUP3 PUSH20 0xFFFFFFFFFFFFFFFFFFFFFFFFFFFFFFFFFFFFFFFF AND PUSH0 DUP1 SLOAD SWAP1 PUSH2 0x100 EXP SWAP1 DIV PUSH13 0xFFFFFFFFFFFFFFFFFFFFFFFFFF AND PUSH13 0xFFFFFFFFFFFFFFFFFFFFFFFFFF AND PUSH32 0x9A31CF28551B9B81ADCCDFE6F7655F31AF1A7733DBB51EBAFC1162B7D2CF52A DUP8 DUP8 CALLVALUE PUSH1 0x40 MLOAD PUSH2 0x4E2 SWAP4 SWAP3 SWAP2 SWAP1 PUSH2 0xDCE JUMP JUMPDEST PUSH1 0x40 MLOAD DUP1 SWAP2 SUB SWAP1 LOG3 PUSH0 DUP4 PUSH20 0xFFFFFFFFFFFFFFFFFFFFFFFFFFFFFFFFFFFFFFFF AND CALLVALUE PUSH1 0x40 MLOAD PUSH2 0x50F SWAP1 PUSH2 0xE3E JUMP JUMPDEST PUSH0 PUSH1 0x40 MLOAD DUP1 DUP4 SUB DUP2 DUP6 DUP8 GAS CALL SWAP3 POP POP POP RETURNDATASIZE DUP1 PUSH0 DUP2 EQ PUSH2 0x549 JUMPI PUSH1 0x40 MLOAD SWAP2 POP PUSH1 0x1F NOT PUSH1 0x3F RETURNDATASIZE ADD AND DUP3 ADD PUSH1 0x40 MSTORE RETURNDATASIZE DUP3 MSTORE RETURNDATASIZE PUSH0 PUSH1 0x20 DUP5 ADD RETURNDATACOPY PUSH2 0x54E JUMP JUMPDEST PUSH1 0x60 SWAP2 POP JUMPDEST POP POP SWAP1 POP DUP1 PUSH2 0x592 JUMPI PUSH1 0x40 MLOAD PUSH32 0x8C379A000000000000000000000000000000000000000000000000000000000 DUP2 MSTORE PUSH1 0x4 ADD PUSH2 0x589 SWAP1 PUSH2 0xE9C JUMP JUMPDEST PUSH1 0x40 MLOAD DUP1 SWAP2 SUB SWAP1 REVERT JUMPDEST PUSH0 DUP1 SLOAD SWAP1 PUSH2 0x100 EXP SWAP1 DIV PUSH13 0xFFFFFFFFFFFFFFFFFFFFFFFFFF AND SWAP3 POP POP POP SWAP4 SWAP3 POP POP POP JUMP JUMPDEST PUSH0 DUP1 PUSH0 SWAP1 SLOAD SWAP1 PUSH2 0x100 EXP SWAP1 DIV PUSH13 0xFFFFFFFFFFFFFFFFFFFFFFFFFF AND SWAP1 POP SWAP1 JUMP JUMPDEST PUSH1 0x1 PUSH0 DUP1 DUP3 DUP3 DUP3 SWAP1 SLOAD SWAP1 PUSH2 0x100 EXP SWAP1 DIV PUSH13 0xFFFFFFFFFFFFFFFFFFFFFFFFFF AND PUSH2 0x5FF SWAP2 SWAP1 PUSH2 0xEE7 JUMP JUMPDEST SWAP3 POP PUSH2 0x100 EXP DUP2 SLOAD DUP2 PUSH13 0xFFFFFFFFFFFFFFFFFFFFFFFFFF MUL NOT AND SWAP1 DUP4 PUSH13 0xFFFFFFFFFFFFFFFFFFFFFFFFFF AND MUL OR SWAP1 SSTORE POP JUMP JUMPDEST PUSH0 PUSH13 0xFFFFFFFFFFFFFFFFFFFFFFFFFF DUP3 AND SWAP1 POP SWAP2 SWAP1 POP JUMP JUMPDEST PUSH2 0x652 DUP2 PUSH2 0x631 JUMP JUMPDEST DUP3 MSTORE POP POP JUMP JUMPDEST PUSH0 PUSH1 0x20 DUP3 ADD SWAP1 POP PUSH2 0x66B PUSH0 DUP4 ADD DUP5 PUSH2 0x649 JUMP JUMPDEST SWAP3 SWAP2 POP POP JUMP JUMPDEST PUSH0 PUSH1 0x40 MLOAD SWAP1 POP SWAP1 JUMP JUMPDEST PUSH0 DUP1 REVERT JUMPDEST PUSH0 DUP1 REVERT JUMPDEST PUSH2 0x68B DUP2 PUSH2 0x631 JUMP JUMPDEST DUP2 EQ PUSH2 0x695 JUMPI PUSH0 DUP1 REVERT JUMPDEST POP JUMP JUMPDEST PUSH0 DUP2 CALLDATALOAD SWAP1 POP PUSH2 0x6A6 DUP2 PUSH2 0x682 JUMP JUMPDEST SWAP3 SWAP2 POP POP JUMP JUMPDEST PUSH0 DUP2 SWAP1 POP SWAP2 SWAP1 POP JUMP JUMPDEST PUSH2 0x6BE DUP2 PUSH2 0x6AC JUMP JUMPDEST DUP2 EQ PUSH2 0x6C8 JUMPI PUSH0 DUP1 REVERT JUMPDEST POP JUMP JUMPDEST PUSH0 DUP2 CALLDATALOAD SWAP1 POP PUSH2 0x6D9 DUP2 PUSH2 0x6B5 JUMP JUMPDEST SWAP3 SWAP2 POP POP JUMP JUMPDEST PUSH0 DUP1 PUSH1 0x40 DUP4 DUP6 SUB SLT ISZERO PUSH2 0x6F5 JUMPI PUSH2 0x6F4 PUSH2 0x67A JUMP JUMPDEST JUMPDEST PUSH0 PUSH2 0x702 DUP6 DUP3 DUP7 ADD PUSH2 0x698 JUMP JUMPDEST SWAP3 POP POP PUSH1 0x20 PUSH2 0x713 DUP6 DUP3 DUP7 ADD PUSH2 0x6CB JUMP JUMPDEST SWAP2 POP POP SWAP3 POP SWAP3 SWAP1 POP JUMP JUMPDEST PUSH0 DUP2 MLOAD SWAP1 POP SWAP2 SWAP1 POP JUMP JUMPDEST PUSH0 DUP3 DUP3 MSTORE PUSH1 0x20 DUP3 ADD SWAP1 POP SWAP3 SWAP2 POP POP JUMP JUMPDEST PUSH0 JUMPDEST DUP4 DUP2 LT ISZERO PUSH2 0x754 JUMPI DUP1 DUP3 ADD MLOAD DUP2 DUP5 ADD MSTORE PUSH1 0x20 DUP2 ADD SWAP1 POP PUSH2 0x739 JUMP JUMPDEST PUSH0 DUP5 DUP5 ADD MSTORE POP POP POP POP JUMP JUMPDEST PUSH0 PUSH1 0x1F NOT PUSH1 0x1F DUP4 ADD AND SWAP1 POP SWAP2 SWAP1 POP JUMP JUMPDEST PUSH0 PUSH2 0x779 DUP3 PUSH2 0x71D JUMP JUMPDEST PUSH2 0x783 DUP2 DUP6 PUSH2 0x727 JUMP JUMPDEST SWAP4 POP PUSH2 0x793 DUP2 DUP6 PUSH1 0x20 DUP7 ADD PUSH2 0x737 JUMP JUMPDEST PUSH2 0x79C DUP2 PUSH2 0x75F JUMP JUMPDEST DUP5 ADD SWAP2 POP POP SWAP3 SWAP2 POP POP JUMP JUMPDEST PUSH0 PUSH20 0xFFFFFFFFFFFFFFFFFFFFFFFFFFFFFFFFFFFFFFFF DUP3 AND SWAP1 POP SWAP2 SWAP1 POP JUMP JUMPDEST PUSH0 PUSH2 0x7D0 DUP3 PUSH2 0x7A7 JUMP JUMPDEST SWAP1 POP SWAP2 SWAP1 POP JUMP JUMPDEST PUSH2 0x7E0 DUP2 PUSH2 0x7C6 JUMP JUMPDEST DUP3 MSTORE POP POP JUMP JUMPDEST PUSH2 0x7EF DUP2 PUSH2 0x6AC JUMP JUMPDEST DUP3 MSTORE POP POP JUMP JUMPDEST PUSH0 PUSH1 0x80 DUP3 ADD SWAP1 POP DUP2 DUP2 SUB PUSH0 DUP4 ADD MSTORE PUSH2 0x80D DUP2 DUP8 PUSH2 0x76F JUMP JUMPDEST SWAP1 POP DUP2 DUP2 SUB PUSH1 0x20 DUP4 ADD MSTORE PUSH2 0x821 DUP2 DUP7 PUSH2 0x76F JUMP JUMPDEST SWAP1 POP PUSH2 0x830 PUSH1 0x40 DUP4 ADD DUP6 PUSH2 0x7D7 JUMP JUMPDEST PUSH2 0x83D PUSH1 0x60 DUP4 ADD DUP5 PUSH2 0x7E6 JUMP JUMPDEST SWAP6 SWAP5 POP POP POP POP POP JUMP JUMPDEST PUSH0 DUP1 REVERT JUMPDEST PUSH0 DUP1 REVERT JUMPDEST PUSH32 0x4E487B7100000000000000000000000000000000000000000000000000000000 PUSH0 MSTORE PUSH1 0x41 PUSH1 0x4 MSTORE PUSH1 0x24 PUSH0 REVERT JUMPDEST PUSH2 0x884 DUP3 PUSH2 0x75F JUMP JUMPDEST DUP2 ADD DUP2 DUP2 LT PUSH8 0xFFFFFFFFFFFFFFFF DUP3 GT OR ISZERO PUSH2 0x8A3 JUMPI PUSH2 0x8A2 PUSH2 0x84E JUMP JUMPDEST JUMPDEST DUP1 PUSH1 0x40 MSTORE POP POP POP JUMP JUMPDEST PUSH0 PUSH2 0x8B5 PUSH2 0x671 JUMP JUMPDEST SWAP1 POP PUSH2 0x8C1 DUP3 DUP3 PUSH2 0x87B JUMP JUMPDEST SWAP2 SWAP1 POP JUMP JUMPDEST PUSH0 PUSH8 0xFFFFFFFFFFFFFFFF DUP3 GT ISZERO PUSH2 0x8E0 JUMPI PUSH2 0x8DF PUSH2 0x84E JUMP JUMPDEST JUMPDEST PUSH2 0x8E9 DUP3 PUSH2 0x75F JUMP JUMPDEST SWAP1 POP PUSH1 0x20 DUP2 ADD SWAP1 POP SWAP2 SWAP1 POP JUMP JUMPDEST DUP3 DUP2 DUP4 CALLDATACOPY PUSH0 DUP4 DUP4 ADD MSTORE POP POP POP JUMP JUMPDEST PUSH0 PUSH2 0x916 PUSH2 0x911 DUP5 PUSH2 0x8C6 JUMP JUMPDEST PUSH2 0x8AC JUMP JUMPDEST SWAP1 POP DUP3 DUP2 MSTORE PUSH1 0x20 DUP2 ADD DUP5 DUP5 DUP5 ADD GT ISZERO PUSH2 0x932 JUMPI PUSH2 0x931 PUSH2 0x84A JUMP JUMPDEST JUMPDEST PUSH2 0x93D DUP5 DUP3 DUP6 PUSH2 0x8F6 JUMP JUMPDEST POP SWAP4 SWAP3 POP POP POP JUMP JUMPDEST PUSH0 DUP3 PUSH1 0x1F DUP4 ADD SLT PUSH2 0x959 JUMPI PUSH2 0x958 PUSH2 0x846 JUMP JUMPDEST JUMPDEST DUP2 CALLDATALOAD PUSH2 0x969 DUP5 DUP3 PUSH1 0x20 DUP7 ADD PUSH2 0x904 JUMP JUMPDEST SWAP2 POP POP SWAP3 SWAP2 POP POP JUMP JUMPDEST PUSH0 PUSH2 0x97C DUP3 PUSH2 0x7A7 JUMP JUMPDEST SWAP1 POP SWAP2 SWAP1 POP JUMP JUMPDEST PUSH2 0x98C DUP2 PUSH2 0x972 JUMP JUMPDEST DUP2 EQ PUSH2 0x996 JUMPI PUSH0 DUP1 REVERT JUMPDEST POP JUMP JUMPDEST PUSH0 DUP2 CALLDATALOAD SWAP1 POP PUSH2 0x9A7 DUP2 PUSH2 0x983 JUMP JUMPDEST SWAP3 SWAP2 POP POP JUMP JUMPDEST PUSH0 DUP1 PUSH0 PUSH1 0x60 DUP5 DUP7 SUB SLT ISZERO PUSH2 0x9C4 JUMPI PUSH2 0x9C3 PUSH2 0x67A JUMP JUMPDEST JUMPDEST PUSH0 DUP5 ADD CALLDATALOAD PUSH8 0xFFFFFFFFFFFFFFFF DUP2 GT ISZERO PUSH2 0x9E1 JUMPI PUSH2 0x9E0 PUSH2 0x67E JUMP JUMPDEST JUMPDEST PUSH2 0x9ED DUP7 DUP3 DUP8 ADD PUSH2 0x945 JUMP JUMPDEST SWAP4 POP POP PUSH1 0x20 DUP5 ADD CALLDATALOAD PUSH8 0xFFFFFFFFFFFFFFFF DUP2 GT ISZERO PUSH2 0xA0E JUMPI PUSH2 0xA0D PUSH2 0x67E JUMP JUMPDEST JUMPDEST PUSH2 0xA1A DUP7 DUP3 DUP8 ADD PUSH2 0x945 JUMP JUMPDEST SWAP3 POP POP PUSH1 0x40 PUSH2 0xA2B DUP7 DUP3 DUP8 ADD PUSH2 0x999 JUMP JUMPDEST SWAP2 POP POP SWAP3 POP SWAP3 POP SWAP3 JUMP JUMPDEST PUSH32 0x4E487B7100000000000000000000000000000000000000000000000000000000 PUSH0 MSTORE PUSH1 0x22 PUSH1 0x4 MSTORE PUSH1 0x24 PUSH0 REVERT JUMPDEST PUSH0 PUSH1 0x2 DUP3 DIV SWAP1 POP PUSH1 0x1 DUP3 AND DUP1 PUSH2 0xA79 JUMPI PUSH1 0x7F DUP3 AND SWAP2 POP JUMPDEST PUSH1 0x20 DUP3 LT DUP2 SUB PUSH2 0xA8C JUMPI PUSH2 0xA8B PUSH2 0xA35 JUMP JUMPDEST JUMPDEST POP SWAP2 SWAP1 POP JUMP JUMPDEST PUSH32 0x416D6F756E74206861727573206C656269682064617269203000000000000000 PUSH0 DUP3 ADD MSTORE POP JUMP JUMPDEST PUSH0 PUSH2 0xAC6 PUSH1 0x19 DUP4 PUSH2 0x727 JUMP JUMPDEST SWAP2 POP PUSH2 0xAD1 DUP3 PUSH2 0xA92 JUMP JUMPDEST PUSH1 0x20 DUP3 ADD SWAP1 POP SWAP2 SWAP1 POP JUMP JUMPDEST PUSH0 PUSH1 0x20 DUP3 ADD SWAP1 POP DUP2 DUP2 SUB PUSH0 DUP4 ADD MSTORE PUSH2 0xAF3 DUP2 PUSH2 0xABA JUMP JUMPDEST SWAP1 POP SWAP2 SWAP1 POP JUMP JUMPDEST PUSH32 0x416C616D617420646F6E6174757220746964616B2076616C6964000000000000 PUSH0 DUP3 ADD MSTORE POP JUMP JUMPDEST PUSH0 PUSH2 0xB2E PUSH1 0x1A DUP4 PUSH2 0x727 JUMP JUMPDEST SWAP2 POP PUSH2 0xB39 DUP3 PUSH2 0xAFA JUMP JUMPDEST PUSH1 0x20 DUP3 ADD SWAP1 POP SWAP2 SWAP1 POP JUMP JUMPDEST PUSH0 PUSH1 0x20 DUP3 ADD SWAP1 POP DUP2 DUP2 SUB PUSH0 DUP4 ADD MSTORE PUSH2 0xB5B DUP2 PUSH2 0xB22 JUMP JUMPDEST SWAP1 POP SWAP2 SWAP1 POP JUMP JUMPDEST PUSH0 DUP2 SWAP1 POP DUP2 PUSH0 MSTORE PUSH1 0x20 PUSH0 KECCAK256 SWAP1 POP SWAP2 SWAP1 POP JUMP JUMPDEST PUSH0 PUSH1 0x20 PUSH1 0x1F DUP4 ADD DIV SWAP1 POP SWAP2 SWAP1 POP JUMP JUMPDEST PUSH0 DUP3 DUP3 SHL SWAP1 POP SWAP3 SWAP2 POP POP JUMP JUMPDEST PUSH0 PUSH1 0x8 DUP4 MUL PUSH2 0xBBE PUSH32 0xFFFFFFFFFFFFFFFFFFFFFFFFFFFFFFFFFFFFFFFFFFFFFFFFFFFFFFFFFFFFFFFF DUP3 PUSH2 0xB83 JUMP JUMPDEST PUSH2 0xBC8 DUP7 DUP4 PUSH2 0xB83 JUMP JUMPDEST SWAP6 POP DUP1 NOT DUP5 AND SWAP4 POP DUP1 DUP7 AND DUP5 OR SWAP3 POP POP POP SWAP4 SWAP3 POP POP POP JUMP JUMPDEST PUSH0 DUP2 SWAP1 POP SWAP2 SWAP1 POP JUMP JUMPDEST PUSH0 PUSH2 0xC03 PUSH2 0xBFE PUSH2 0xBF9 DUP5 PUSH2 0x6AC JUMP JUMPDEST PUSH2 0xBE0 JUMP JUMPDEST PUSH2 0x6AC JUMP JUMPDEST SWAP1 POP SWAP2 SWAP1 POP JUMP JUMPDEST PUSH0 DUP2 SWAP1 POP SWAP2 SWAP1 POP JUMP JUMPDEST PUSH2 0xC1C DUP4 PUSH2 0xBE9 JUMP JUMPDEST PUSH2 0xC30 PUSH2 0xC28 DUP3 PUSH2 0xC0A JUMP JUMPDEST DUP5 DUP5 SLOAD PUSH2 0xB8F JUMP JUMPDEST DUP3 SSTORE POP POP POP POP JUMP JUMPDEST PUSH0 SWAP1 JUMP JUMPDEST PUSH2 0xC44 PUSH2 0xC38 JUMP JUMPDEST PUSH2 0xC4F DUP2 DUP5 DUP5 PUSH2 0xC13 JUMP JUMPDEST POP POP POP JUMP JUMPDEST JUMPDEST DUP2 DUP2 LT ISZERO PUSH2 0xC72 JUMPI PUSH2 0xC67 PUSH0 DUP3 PUSH2 0xC3C JUMP JUMPDEST PUSH1 0x1 DUP2 ADD SWAP1 POP PUSH2 0xC55 JUMP JUMPDEST POP POP JUMP JUMPDEST PUSH1 0x1F DUP3 GT ISZERO PUSH2 0xCB7 JUMPI PUSH2 0xC88 DUP2 PUSH2 0xB62 JUMP JUMPDEST PUSH2 0xC91 DUP5 PUSH2 0xB74 JUMP JUMPDEST DUP2 ADD PUSH1 0x20 DUP6 LT ISZERO PUSH2 0xCA0 JUMPI DUP2 SWAP1 POP JUMPDEST PUSH2 0xCB4 PUSH2 0xCAC DUP6 PUSH2 0xB74 JUMP JUMPDEST DUP4 ADD DUP3 PUSH2 0xC54 JUMP JUMPDEST POP POP JUMPDEST POP POP POP JUMP JUMPDEST PUSH0 DUP3 DUP3 SHR SWAP1 POP SWAP3 SWAP2 POP POP JUMP JUMPDEST PUSH0 PUSH2 0xCD7 PUSH0 NOT DUP5 PUSH1 0x8 MUL PUSH2 0xCBC JUMP JUMPDEST NOT DUP1 DUP4 AND SWAP2 POP POP SWAP3 SWAP2 POP POP JUMP JUMPDEST PUSH0 PUSH2 0xCEF DUP4 DUP4 PUSH2 0xCC8 JUMP JUMPDEST SWAP2 POP DUP3 PUSH1 0x2 MUL DUP3 OR SWAP1 POP SWAP3 SWAP2 POP POP JUMP JUMPDEST PUSH2 0xD08 DUP3 PUSH2 0x71D JUMP JUMPDEST PUSH8 0xFFFFFFFFFFFFFFFF DUP2 GT ISZERO PUSH2 0xD21 JUMPI PUSH2 0xD20 PUSH2 0x84E JUMP JUMPDEST JUMPDEST PUSH2 0xD2B DUP3 SLOAD PUSH2 0xA62 JUMP JUMPDEST PUSH2 0xD36 DUP3 DUP3 DUP6 PUSH2 0xC76 JUMP JUMPDEST PUSH0 PUSH1 0x20 SWAP1 POP PUSH1 0x1F DUP4 GT PUSH1 0x1 DUP2 EQ PUSH2 0xD67 JUMPI PUSH0 DUP5 ISZERO PUSH2 0xD55 JUMPI DUP3 DUP8 ADD MLOAD SWAP1 POP JUMPDEST PUSH2 0xD5F DUP6 DUP3 PUSH2 0xCE4 JUMP JUMPDEST DUP7 SSTORE POP PUSH2 0xDC6 JUMP JUMPDEST PUSH1 0x1F NOT DUP5 AND PUSH2 0xD75 DUP7 PUSH2 0xB62 JUMP JUMPDEST PUSH0 JUMPDEST DUP3 DUP2 LT ISZERO PUSH2 0xD9C JUMPI DUP5 DUP10 ADD MLOAD DUP3 SSTORE PUSH1 0x1 DUP3 ADD SWAP2 POP PUSH1 0x20 DUP6 ADD SWAP5 POP PUSH1 0x20 DUP2 ADD SWAP1 POP PUSH2 0xD77 JUMP JUMPDEST DUP7 DUP4 LT ISZERO PUSH2 0xDB9 JUMPI DUP5 DUP10 ADD MLOAD PUSH2 0xDB5 PUSH1 0x1F DUP10 AND DUP3 PUSH2 0xCC8 JUMP JUMPDEST DUP4 SSTORE POP JUMPDEST PUSH1 0x1 PUSH1 0x2 DUP9 MUL ADD DUP9 SSTORE POP POP POP JUMPDEST POP POP POP POP POP POP JUMP JUMPDEST PUSH0 PUSH1 0x60 DUP3 ADD SWAP1 POP DUP2 DUP2 SUB PUSH0 DUP4 ADD MSTORE PUSH2 0xDE6 DUP2 DUP7 PUSH2 0x76F JUMP JUMPDEST SWAP1 POP DUP2 DUP2 SUB PUSH1 0x20 DUP4 ADD MSTORE PUSH2 0xDFA DUP2 DUP6 PUSH2 0x76F JUMP JUMPDEST SWAP1 POP PUSH2 0xE09 PUSH1 0x40 DUP4 ADD DUP5 PUSH2 0x7E6 JUMP JUMPDEST SWAP5 SWAP4 POP POP POP POP JUMP JUMPDEST PUSH0 DUP2 SWAP1 POP SWAP3 SWAP2 POP POP JUMP JUMPDEST POP JUMP JUMPDEST PUSH0 PUSH2 0xE29 PUSH0 DUP4 PUSH2 0xE11 JUMP JUMPDEST SWAP2 POP PUSH2 0xE34 DUP3 PUSH2 0xE1B JUMP JUMPDEST PUSH0 DUP3 ADD SWAP1 POP SWAP2 SWAP1 POP JUMP JUMPDEST PUSH0 PUSH2 0xE48 DUP3 PUSH2 0xE1E JUMP JUMPDEST SWAP2 POP DUP2 SWAP1 POP SWAP2 SWAP1 POP JUMP JUMPDEST PUSH32 0x5472616E7366657220676167616C000000000000000000000000000000000000 PUSH0 DUP3 ADD MSTORE POP JUMP JUMPDEST PUSH0 PUSH2 0xE86 PUSH1 0xE DUP4 PUSH2 0x727 JUMP JUMPDEST SWAP2 POP PUSH2 0xE91 DUP3 PUSH2 0xE52 JUMP JUMPDEST PUSH1 0x20 DUP3 ADD SWAP1 POP SWAP2 SWAP1 POP JUMP JUMPDEST PUSH0 PUSH1 0x20 DUP3 ADD SWAP1 POP DUP2 DUP2 SUB PUSH0 DUP4 ADD MSTORE PUSH2 0xEB3 DUP2 PUSH2 0xE7A JUMP JUMPDEST SWAP1 POP SWAP2 SWAP1 POP JUMP JUMPDEST PUSH32 0x4E487B7100000000000000000000000000000000000000000000000000000000 PUSH0 MSTORE PUSH1 0x11 PUSH1 0x4 MSTORE PUSH1 0x24 PUSH0 REVERT JUMPDEST PUSH0 PUSH2 0xEF1 DUP3 PUSH2 0x631 JUMP JUMPDEST SWAP2 POP PUSH2 0xEFC DUP4 PUSH2 0x631 JUMP JUMPDEST SWAP3 POP DUP3 DUP3 ADD SWAP1 POP PUSH13 0xFFFFFFFFFFFFFFFFFFFFFFFFFF DUP2 GT ISZERO PUSH2 0xF21 JUMPI PUSH2 0xF20 PUSH2 0xEBA JUMP JUMPDEST JUMPDEST SWAP3 SWAP2 POP POP JUMP INVALID LOG2 PUSH5 0x6970667358 0x22 SLT KECCAK256 0x2E 0x2F NOT DUP9 CREATE2 PUSH14 0xF085CC999D7F7A8EC18102BA2E19 MULMOD 0xF9 PUSH8 0x6C93F8427AAA075B 0xAE PUSH5 0x736F6C6343 STOP ADDMOD XOR STOP CALLER "
		},
		"gasEstimates": {
			"creation": {
				"codeDepositCost": "786600",
				"executionCost": "816",
				"totalCost": "787416"
			},
			"external": {
				"donasi(string,string,address)": "infinite",
				"donasiData(uint104,uint256)": "infinite",
				"getOrderId()": "2517",
				"orderId()": "2441"
			},
			"internal": {
				"incrementOrderId()": "infinite"
			}
		},
		"methodIdentifiers": {
			"donasi(string,string,address)": "8c176dcc",
			"donasiData(uint104,uint256)": "3a3b0b1e",
			"getOrderId()": "a8496426",
			"orderId()": "163de5e5"
		}
	},
	"abi": [
		{
			"anonymous": false,
			"inputs": [
				{
					"indexed": true,
					"internalType": "uint104",
					"name": "orderId",
					"type": "uint104"
				},
				{
					"indexed": false,
					"internalType": "string",
					"name": "name",
					"type": "string"
				},
				{
					"indexed": false,
					"internalType": "string",
					"name": "message",
					"type": "string"
				},
				{
					"indexed": true,
					"internalType": "address",
					"name": "addressDonatur",
					"type": "address"
				},
				{
					"indexed": false,
					"internalType": "uint256",
					"name": "amount",
					"type": "uint256"
				}
			],
			"name": "DonasiNote",
			"type": "event"
		},
		{
			"inputs": [
				{
					"internalType": "string",
					"name": "name",
					"type": "string"
				},
				{
					"internalType": "string",
					"name": "message",
					"type": "string"
				},
				{
					"internalType": "address payable",
					"name": "addressDonatur",
					"type": "address"
				}
			],
			"name": "donasi",
			"outputs": [
				{
					"internalType": "uint104",
					"name": "",
					"type": "uint104"
				}
			],
			"stateMutability": "payable",
			"type": "function"
		},
		{
			"inputs": [
				{
					"internalType": "uint104",
					"name": "",
					"type": "uint104"
				},
				{
					"internalType": "uint256",
					"name": "",
					"type": "uint256"
				}
			],
			"name": "donasiData",
			"outputs": [
				{
					"internalType": "string",
					"name": "name",
					"type": "string"
				},
				{
					"internalType": "string",
					"name": "message",
					"type": "string"
				},
				{
					"internalType": "address",
					"name": "addressDonatur",
					"type": "address"
				},
				{
					"internalType": "uint256",
					"name": "amount",
					"type": "uint256"
				}
			],
			"stateMutability": "view",
			"type": "function"
		},
		{
			"inputs": [],
			"name": "getOrderId",
			"outputs": [
				{
					"internalType": "uint104",
					"name": "",
					"type": "uint104"
				}
			],
			"stateMutability": "view",
			"type": "function"
		},
		{
			"inputs": [],
			"name": "orderId",
			"outputs": [
				{
					"internalType": "uint104",
					"name": "",
					"type": "uint104"
				}
			],
			"stateMutability": "view",
			"type": "function"
		}
	]
}